:20000000003A0120D53E020039FB021039FB021039FB021039FB021039FB021039FB0210CC
:1C00200039FB021039FB021039FB021039FB021039FB021039FB021011FB021002
:20003C002DE9F04F99B0054680780224532800F2C785DFE810F054009900A800B800C80008
:20005C00DA00EA000C011B01C5052A0138015901C505C505C505C505C505C505C505C505BF
:20007C00C505C505C505C505C505C505C505C505C505C505C505650188019401A001AB01E5
:20009C00BA01D401EB0107023A02C505C505C505C505C505C505600276028C02A202B80201
:2000BC00CD02DE020303C505C505C505C505C505C50538034C036003C5056D03770395037A
:2000DC009E03AA03B603C503CF03F2030F0434043C044E045B0467048B0492049504EC1C01
:2000FC00E97A2A7B002320461CF02EFD8DF8180006AB65200021012220F0F2FEDFF8180B0B
:20011C000078012800F25B85204627F030FD002800F0558505460079012840F0508527F0AB
:20013C00C3FA00274FF400018DF83F008DF83800000ACDF83A108DF841708DF83E708DF8F3
:20015C0040008DF839000EAE214606F10A0027F08CFD297815223346017069788770417076
:20017C004520FF2100F029BD27F025FD6979AA790023002423F048FC8DF838000EAB652031
:20019C00012100F053BC27F0D7FA27F037FC01460EA8022227F0C3FC8DF8180006AB652026
:2001BC00022100F043BC27F0C7FA27F027FC01460EA8032227F0B3FC8DF8180006AB652044
:2001DC00032100F033BC27F0B7FA27F017FCEA7901460EA80023002425F0CEF98DF81800EE
:2001FC0006AB6520042100F021BC27F0A5FA27F005FC01460EA8052227F091FC8DF8180088
:20021C0006AB6520052100F011BC0020DFF8304A27F077F9ADF85800681DA0478046E81D7D
:20023C00A04795F809B0824605F10A07BBF1100F00F2AE830EAC5E46002E00F0AC8338468F
:20025C0027F053FD24F8020B013E0237F4E727F073FA27F0D3FB01460EA8102227F05FFC95
:20027C008DF8180006AB65200721DFE327F064FA27F0C4FB01460EA8112227F050FC8DF842
:20029C00180006AB65200821D0E327F094FC6A7B691D0023002422F099F98DF838000EABA5
:2002BC0065200A21C2E302208DF8200027F083FCADF81800681D27F018FDEA79064605F15D
:2002DC0008018DF838200EAF781C26F0FBFF06A831463A46002300241FF00EF88DF85800DD
:2002FC0016AB65200B21A1E327F065FC0021002421F070FC8DF838000EAB65200C2195E312
:20031C000020DFF83C4927F0FCF8ADF85800681DA047804695F80F9005F11000A04705F1FC
:20033C001304AD7C83460F2D00F247830EAE2F46002F00F04583204627F0D7FC26F8020B0D
:20035C00013F0234F4E727F0F7F927F0E1F826F0A9FF40F0468306A827F087FC46E327F0FA
:20037C00EBF927F0D5F826F09DFF40F04D8306A827F07BFC4DE327F01EFC27F008FB8DF8AB
:20039C0038000EAB6520232100F016BCDFF88818C8208DF81800E81C0978002900F0818327
:2003BC0026F006FC8DF81800A3E36879EE1CFE280BD1A879FF2808D12878082805D33046BA
:2003DC0027F093FC314623F0A7FD0EA9304626F0CDF8002800F09183054600249FE3E81C04
:2003FC00042124F0C9FAE97927F0A1FCDFF844188DF83800022026F003FDDFF83C18032059
:20041C0026F0FEFC0EAB65202621D5E327F0CDFB044605F10E0027F068FC297C6A7C0346F7
:20043C00E878CDE90012AA1D214623F0D1FFDFF800188DF83800042026F0E2FC0EAB652065
:20045C002721B9E34FF00208E81C8DF8408027F04CFCADF8380068798DF85800A81D27F034
:20047C0044FC2E7A044600270935CDE9005716A80EA9224633461FF051FD27F07BF910D19D
:20049C00DFF890078DF84080CDE9005722463346C08AADF8380016A80EA91FF03FFD8DF833
:2004BC00180006AB6520282186E30226E81C8DF8406027F01AFC27F0A1FAED7904460EA88A
:2004DC00002321462A4625F039FF27F053F90ED1DFF840078DF8406021462A460023C08AF0
:2004FC00ADF838000EA825F029FF8DF8180006AB6520292160E327F01FF9ADF83800681D1F
:20051C00042124F039FA6A7AAB7A0024014600940EA823F089FF8DF8180006AB65203021D6
:20053C0084E227F009F927F037FA312201238DF8580016A8CDE90004DFF8F0060EA91FF079
:20055C00EDFC8DF8180006AB652031216EE227F0F3F827F021FA322201238DF8580016A8DA
:20057C00CDE90004DFF8C4060EA91FF0D7FC8DF8180006AB6520322158E227F0DDF827F008
:20059C000BFA332201238DF8580016A8CDE90004DFF898060EA91FF0C1FC8DF8180006AB26
:2005BC006520332142E227F0C7F8ADF83800687B0024691D0094C0F3400200F001030EA8AF
:2005DC0021F0EAFA8DF8180006AB652034212DE227F0B2F86A7BADF83800691D0EA80023F1
:2005FC00002424F0C7FB8DF8180006AB652035211CE22C4614F8030B04281ABFE8782C1D84
:20061C0002208DF84000204627F06FFBDFF81866A5780121E278ADF838000023002431703D
:20063C000EA829461DF0B6FB8DF818002846347024F0DCFB06AB65203621F7E127F0BBFAF0
:20065C00ADF83800687904218DF84000A81D24F093F90446AE7AEF7A05F10C0027F045FB3D
:20067C00DFF8B0850546214632463B4626F026FF0EA81FF02FFC27F07DF810D10220214686
:20069C0032463B468DF84000B8F81600ADF8380026F014FF0EA81FF01DFC8DF8180006AB88
:2006BC006520372188E26C7827F085FA0146DFF8740500781EF0FAFD8DF8380004F0E000B8
:2006DC00202840F07C820EAB65203E2174E26C7827F071FA0146DFF84C05007820F0A0F8A0
:2006FC008DF8380004F0E000202840F068820EAB65203F2160E200206C788DF83800DFF873
:20071C0018050078411E022980F09481022095E127F051FA27F03BF98DF838000EAB6520D9
:20073C00422149E2002006908DF83D00CDF83900E81C06A924F032FF8DF83800069850B145
:20075C0026F0C3FE81788DF83B10C1788DF83C1000798DF83D000EAB6520432106222CE2C0
:20077C00E81C26F025FA8DF838000EAB6520442122E227F020FA6979AA790DF0AFFA8DF85F
:20079C0038000EAB6520452116E227F014FA6979AA7919F073FB8DF838000EAB6520462166
:2007BC000AE2EC7827F001FA0146204621F0A8FAB0FA80F0472140098DF838000EABC1E178
:2007DC00E87800248DF8384021F070FF0EAB652047212BE1E8780EA924F004FF06468DF84B
:2007FC00180040000130C5B2284627F082FA002800F0A381044600F8016B00219DF8182004
:20081C00914280F0BE809DF83830013100F8023B9DF8393000F8013CF2E70EAC1321204677
:20083C0026F00CFCEE7827F0C0F90146304624F005FB002800F088810021231D8DF8381028
:20085C0026F043FEC11C827818468DF83B2026F039FD7CE10020EC78CDF84600CDF84200D1
:20087C00CDF83E00CDF83A0027F09FF9AA79ADF838000F2A28BF0F228DF83A2022B10EA8F2
:20089C00E91D033026F01EFD0EA9204601221BF02DFD8DF8180006AB65204B218CE126F09B
:2008BC0009FB8DF838000EAB65204C2184E1E87829798DF838100EA9032800F05F810228A0
:2008DC0000F06281012840F0668152201FF0ECFF64E127F070F969790246A81D1AF08AF83D
:2008FC008DF838000EAB65204E2165E127F063F90146687918F0B8FE8DF838000EAB6520D8
:20091C004F2159E1C34D0822E88A05F13901ADF83800C24800788DF83A00A88CADF83B0003
:20093C00688BADF83D000EACE01D26F0CBFC04F10F0005F11C01082226F0C4FC287E502104
:20095C00182223468DF84F00652036E1B2480078002800F0018112200AE11FF007FA2EE120
:20097C0000208DF83800E878010606D5A94910F07F0018BF012081F868000EAB6520532140
:20099C001AE1652049212A46234620F0A9FA39E180208DF863003E78102E52D80DF11809E6
:2009BC00013734464D46002C4DD0384627F09DF925F8020B013C0237F5E780208DF863005E
:2009DC0027780F2F54D801340DF1180A3E46002E50D0204627F089F92AF8020B013E023428
:2009FC00F5E7084627F081F9ADF81800687E06A926F060FC0EA921201AF02EFA8DF8580055
:200A1C0016AB6520212111E0084627F06EF9ADF81800687E06A926F04DFC0EA922201AF0C1
:200A3C001BFA8DF8580016AB65202221012220F057FAC5E0002840F0B580042008F0A6FAAD
:200A5C00B3E080200DE0BBF1100F0CD80EA9002052465B468DE84202039016A8414614F006
:200A7C0023F98DF863000DF1630365200621A3E080200FE00F2D0FD80EA9002002974A4611
:200A9C005B46CDE9005106A9CDE9031016A8414614F0B2F88DF863000DF163036520202115
:200ABC008AE016A90EAD2A4617F088FD04469DF85800F0B1614904EB4400002641F82060A6
:200ADC0001EB800046609DF94B00B0F1FF3F03DC05F1130021F04AFB0EAD1421284626F076
:200AFC00ADFA0420214614222B4623F0ADFE8DF8186006AB652024215EE0182027F0F9F84D
:200B1C00002800F083800446BDF8380000211822234626F065FA0546002818BFC8251920BE
:200B3C0027F0E7F8002867D007460130002D4BD01821FF2226F07CFA50E0002049218DF859
:200B5C00180006AB652037E001208DF838000EAB65204A21132230E027F02DF8044605F1CC
:200B7C000D0027F0C2F80246691D204623F072FC8DF838000EAB652051211DE052201FF0DB
:200B9C0093FE2748002104E052201FF08DFE24480121017002E0522023F0B4FC0EAB6520D4
:200BBC004D2109E001208DF8380004F0E000202805D10EAB65204021012220F091F9002472
:200BDC00204619B0BDE8F08F3146082226F07AFB07F109002146102226F074FB6520252190
:200BFC0019223B463D7020F07BF93846192126F025FA384627F07BF8002CE0D0204618217C
:200C1C0026F01CFA204627F072F8D8E7C825FFF7E4BB00BFA8F50020A80C00207C0A00206E
:200C3C00C20E002072010120810E00200C0D0020294C020025510200D540010014CC002027
:200C5C00077D02002DE9F04F99B081466FF00700DFF8DC880630ADF8520098F80000022805
:200C7C0014D1DFF8C808007880B9B9F8080010B11020012101E03020002109F0DBFF00200A
:200C9C008DF81C0007A952201FF00EFE0DF11C0A99F80810D9F8040052460FF0EFFBE8B19E
:200CBC009DF81E709DF81F409DF82050BDF8266026F0F4FC844211D145EA070001280DD8CF
:200CDC0026F003004FF6F87580B2A84206D098F80000022808D19DF84D0028B1D32014F0F6
:200CFC00F0FB19B0BDE8F08FB9F82800ADF84800B9F83200ADF82A009DF82200D0B1D9F87F
:200D1C0004109DF81D209DF83830012025F0B4FA08B1CF20E3E7DFF81C08C078012809D148
:200D3C00B9F8280026F0BFFE20B1417901F0E701083141719DF8210068B1BDF82610FF20C3
:200D5C0024F07CF89DF82110E0B141F001012C268DF8211017E09DF83900002800F00581FA
:200D7C009DF83D10FF2902D0002940F02A81DFF8C807BDF82620C18A8A4240F02B810120C2
:200D9C00222607E0082601F00300012808BF46F01106012098F800103746022938BF67F0F2
:200DBC007F07B20748BF3746002808BF37469DF82200002800F0818017F0400B1ED00129AE
:200DDC0005D8DFF87407807B800700F1E780119801780C2900F2E880012241F298438A4042
:200DFC001A4200F0E180032902D140780D2805D007A821F036FE01283FF473AFDFF83847A1
:200E1C00B9F84410A08C81420AD199F84620B9F84210B9F8280000230093002307F046FC02
:200E3C009DF82200F8B1B9F84210B9F8280021F039F8002800F082800646D9F804009DF848
:200E5C001D10F2780844417B8A421EBF00227260F1700130042123F08FFD71688842FFF44E
:200E7C0040AF0130706098F8000002283ED2A07B80077FF536AF9DF84D0060B1BDF82800D1
:200E9C0025F0F2FB002800F01681D9F80400417801F0DF0141709DF82E00002800F0EE802C
:200EBC00D9F804008179013981718DF82E1007F07F00090640F0E580E2E0DFF87C06C07AE9
:200EDC0000283FF479AF07F0220022283FF474AFF8B200F0420042287FF41BAF1198007816
:200EFC0000F0FE0006287FF414AF65E77FF4F9AE94F82600092802D004287FF4F2AEF8B280
:200F1C00800600F18980BBF1000F3FF4EAAE11980078033809283FF6E4AEDFE810F057013C
:200F3C000F010A000A005C010A000A000A000A000B00D6E607A814F019FBD2E69DF84D00C4
:200F5C0000284ED0042024F01BFA00283FF4C9AE01464FF4B2700880B9F828004880DFF864
:200F7C00DC0500781CF0B6FDBBE6BDF826001FF0F7FF0238DFF8C015B0FA80F0CA8A41091E
:200F9C00BDF82600904208BF0231002942D09DF81E20002A5AD001F1400759E01198017898
:200FBC004A1E0B2AFFF41FAFDFF88C05BDF82620C08A82427FF492AEBDF8280022F0D4FBD5
:200FDC008CE6109A9DF83C001FF05EFB30B101200026DFE690F826000428F8D100260020CA
:200FFC00D8E694F86C0001287FF43DAFBBF1000F04D01198007806283FF435AFE81DBDF8E8
:20101C002A1080B281423FF46CAE07A849461DF04DF866E600271BE099F8460026F032FA21
:20103C009DF82E00012840F0CA80B9F82800BDF82810814240F0C380BDF826001FF090FFB9
:20105C00022804BF00208DF82E00B8E001F120071FF086FF0138B0FA80F0400947EA00069C
:20107C009DF81E0000283FF494AE1198007825F037FB012818BF07F07E068AE607F07F003B
:20109C000746390702D44FF0000B34E0F9B24A0722D4C9069DF8211028D5C1F3820212B1F4
:2010BC00072A18BF013A002A08BF074601F0E30040EA820118E0D32014F003FADFF88004CB
:2010DC000078002800F0A380DFF8781451F82000C0EB001081009CE09DF8210000F0E00136
:2010FC0000F0E30040EAD1018DF82110D9F804004FF4805B017294F82600092801D0042809
:20111C0026D1E18ABDF8260088420AD01FF028FF022806D09DF8210000F0030001287FF457
:20113C00E0AD9DF81E00002845D01198007803284CD007284FD004287FF4D3AD9DF8380074
:20115C0002287FF4CEAD07A9002011F0F5FAC8E5FEB217F0610F47D0F00708D0B9F82810F8
:20117C0007A814F04DFC002866D007F09F074FF00008FEB2B80609D599F84600D9F83C20C5
:20119C0026F080F907A815A905F0AAF9700640F14B81B9F8281007A80DF1520243460FF0BA
:2011BC00E9F900286FD0804611980078012808BF4BF0100B38E199F8460026F063F9D9F86A
:2011DC003C2007A815A905F08BF98AE507A800210EF05EFE85E59DF8380004287FF481AD14
:2011FC0007A816F0ABFD7CE59DF81E0001285AD111980078032849D0052854D1B9F828106E
:20121C0007A80DF1520200230FF0B4F969E5CD480168CD480268BDF82800904701287FF447
:20123C0060ADCA480168BDF828008847C8480168BDF82800884754E524F064FC9DF82E10B9
:20125C008046BDF8280019B9B9F82810884290D0E18A814204D1B748807801287FF489AF1C
:20127C00B9F8281007A8424608F02EFD002800F0C18030074BF0040BBDF8260048BFE81D4E
:20129C00ADF8520075E74FF00008CDE0BDF8260025F0EAF938B1B9F8281007A80DF1520245
:2012BC0000230FF067F99DF82E0098B322F06EF800287FF416AD9DF83900B0B3109A9DF83C
:2012DC003C009DF83D101FF0DFF9002800F095809DF83D00002800F09A80109926F0ACFB56
:2012FC009DF82430ADF8520011209DF823209DF821104BF0400B002B08BF0920002A18BF81
:20131C000830002918BF0130D9F804100A5C013A0A5486E09DF81E0001287FF476AE1198E2
:20133C00007803283FF4DDAC6FE6BDF826003107ADF8520025D49DF8201011BB9DF81E1086
:20135C0001291ED0002117F015FE18B140790138022816D3B9F84410BDF8520020F0A2FD95
:20137C0028B1807824F0FEFD0138072809D3BDF8280025F079F9002800F0D18004208DF8B7
:20139C0020004020BDF826100AF11D0200EAC7049DF82000234617F0DFFA38B1D9F804003B
:2013BC004BF0200B017801F03F0101709DF8390048B1BDF826100AF1200020F0A3FA4BF0DB
:2013DC00400BADF852009DF81E00012806D0BDF82810BDF82600002213F070FEBDF82810B5
:2013FC00BDF82600224611F015FC002818BF4BF0200B16E007F0DF07B9E6BDF82610BDF805
:20141C0028000B22002319F083FAFFF76ABCBDF82600ADF8520026F046FB002808BF4BF043
:20143C00400B24F06FFB8046A81DBDF8521080B20E1A484818BF4646007801282BD1E81D36
:20145C00B9F8321080B2814225D0B9F82810814221D0681CBDF8262080B282421BD2BDF8DF
:20147C002800814217D026F01EFBA0B101790139012910D8408801218DF85410ADF8600060
:20149C0015AD28461DF058FA28B1281D1CF046FA08B120F009FB78B2B0F1FF3F3FF721AC5E
:2014BC00002E3FF41EACB9F8080026F022FC00283FF417ACB9F80820D9F80410054625F0BC
:2014DC0001FF9DF81E10002099F80830B9F8282016908DF85410BDF8521015ACCDE9006BC3
:2014FC00CDE90204284610F07DF920B1284626F0FEFBFFF7F6BB0F48407800283FF4F1AB35
:20151C0000208DF81860ADF81900DDF826004FEA3040059005A825F059FDFFF7E2BBBDF83B
:20153C002610BDF8280002226CE700BFC20E0020A80C0020600C0020A8F5002074010120A3
:20155C00B40E0020F0910200EC090020F4090020F0090020C00E00202DE9F0438DB0054600
:20157C0080780224252800F27380DFE810F02600A400C400D700EA00F8000601B602B6027A
:20159C001D012E01B602B602B602B602B60246014B01B602B602540158016101B602B602C7
:2015BC00B602B602B602B602B602B602B6026B016E017101740178017F01DFF8D475002408
:2015DC000E258DF804403878012807D801A81BF087FD04469DF8040005EB4005EEB23046D5
:2015FC0026F087FB002800F087824FF000080546431C0021082280F80080012025F0F0FCC0
:20161C0026F052F86872000A0721A872DFF88405E972007828733878012800F262829DF816
:20163C000420002A6A7300F05E8205F10E0000212346914280F0578213F8022B013100F887
:20165C00022B13F8012C00F8012C9DF80420F0E7A0F140010D291FD8DFE811F00E0010016E
:20167C003F023F021E012E013F023F023A014501500165013F02740101ACE91C0822201DF5
:20169C0025F020FE204619F05FFABDF806004021ADF828000AABEEE0632800F069816428D6
:2016BC0000F07681E02840F0188200244720E021002200230FE2202026F01BFB002800F00F
:2016DC00C1812021FF22044625F0B2FC631C01200021082225F084FC0546002818BF01254D
:2016FC0001AB84200021042225F07AFC002800F00582023506E2E81C26F0F7FAADF804003A
:20171C00832026F01CFA014601AA832026F0E0F88DF828000AAB6720022190E1E81C0421B5
:20173C0023F02AF90190842026F009FA014601AA842026F0CDF88DF828000AAB672003218B
:20175C007DE1612026F0FBF90146EA1C612026F0BFF88DF8040001AB672004216FE1622036
:20177C0026F0EDF90146EA1C622026F0B1F88DF8040001AB6720052161E100208DF80400F6
:20179C00E81C26F0B2FA6A7900F4F851002A00F04981B1F5A06F04D04FF6FF71884240F02B
:2017BC004B814FF0FF3045E126F06BFA044625F03FFFD949604301ACB0FBF1F1204626F01A
:2017DC0006FA672009210422ABE0DFF8B4632D79306840B901AC204625F031FE0120214687
:2017FC000DF096FC3060052D00F06981002D00F06981642120F00EFD66E115F8032B6720F2
:20181C0010216EE0E87820F0E5FD8DF8040001AB6720112113E100246720142102E0002413
:20183C0067201521ADF80840019401AB062252E100246720162109228DF80C40CDE901446D
:20185C0001AB48E1F52020210BE0F520212108E0F520222105E04FF6F570232108E0F520EF
:20187C0024218DF8040001AB6720E8E0F5202521ADF8040001AB67200222E1E0E81C26F04D
:20189C0034FAADF8060001AC204616F013FA231D672041210822D3E0E81C0AA924F066FEF8
:2018BC0000288DF8040000F0CF8001A81821FF22013025F0BDFBF4E0E81C0AA924F056FE28
:2018DC0000288DF8040000F0F1804FF0FF30EFE015F8030F697820F081FC28806720482178
:2018FC0002222B46ACE0E87823F054F901AC014620461BF0BAFF6720492111E0EC1C20467D
:20191C0024F07EFB002818BF2046B5F80B1018F0D5F801AC014620461BF0A7FF67204A211F
:20193C00242223468CE001ACE91C0822204625F0C9FC204625F078FA8DF828000AAB67207E
:20195C004B217CE04FF0FF3095F80380691D0190ADF81000CDE90200FE208DF80600287957
:20197C0003288DF8300020D10AA826F07EF921E00024E91C08228DF8284001AD284625F0C9
:20199C00A1FC28461BF0CAFF0AAB67206321A1E0B5F80B006A7B0024E91C8DF8044009F083
:2019BC00B9FA01AB6720642194E0084626F09DF9ADF82800AF7B002F00F0DD807E0095F8B4
:2019DC000D90304626F095F9002800F0D48005F10F013246044625F075FC00940AA94046AD
:2019FC004A463B460CF080FD002800F0BA80837801784278057946798DF806308DF8041030
:201A1C008DF80520C3788DF809608DF808508DF8073001A98B1D811D40794200184625F0E0
:201A3C0051FCA5E0B1F5A06F03D04FF6FF71884202D100205549086001AB6720062101223B
:201A5C001FF04EFA002448E0182026F052F940B3BDF828100446009006200022182322F0DF
:201A7C00DDFEB8B9BDF8285001AE21461022701C25F028FC444F05EB450506F1110057F8A0
:201A9C00251026F0A4F807EB8500416806F1150026F09DF82046182125F0D0FA204626F072
:201ABC0026F901AB672044211922C9E7BDF82800ADF8050001AB672045210322C0E7314902
:201ADC0001220A701FF00BFE002467200A218DF8044001AB01221FF003FA20460DB0BDE8F3
:201AFC00F08385F80D806720002132462B461FF0F7F9284626F0FBF87CBBA3E7019800BA32
:201B1C00C4F809000AAB83200021022225F068FA20B1043506E000BF40420F00BDF82800B3
:201B3C00A4F80D0004F10F0361200021012225F057FA002818BF083504F1100362200021C7
:201B5C00102225F04DFA002818BF1035234625706720012120221FF0C3F9204626F0C7F8A8
:201B7C0070E74FF6FF70ADF808006FF480300190204626F0BCF801AB67204D210E225FE7A6
:201B9C00080101207E0E002058FC0020E8000120A80C00207C0A00202DE9F04F85B08478D6
:201BBC000226362C00F2BE820546DFE814F06C01740172007C017800BB02BB0281003700BC
:201BDC004C008C009F00AD00BB02B5009001BB02BB029A01AD01BB01BB02BB02BB02BB024F
:201BFC00BB02BB02BB0237004C00BB02BB02BB02BB02BB02BB02BB02BB02BB02BB02BB02F0
:201C1C00BB02BB02BB02BB02BB02BB02BB02BD00EB00CB01FF005B005B00DB0125F0BFFFA5
:201C3C00242840F0AA8102AB352000210422002425F0D6F9002800F0FC81012002228DF831
:201C5C0010000020FCE100208DF8100025F0A7FF0646092C40F0ED8095F8059095F8068098
:201C7C000720EFE0DFF82465306880B1406A70B102A925F09DFF0546342C40F02C8228460B
:201C9C0026F033F8002800F02582042041E203203FE2DFF80835612002210A223FE202ACEA
:201CBC00E220214622F02EFC61200421082288E125F075FF0446681D26F017F8242C40F02D
:201CDC0087810020FBE1E878032800F29781281D26F00BF80246E878DFF8B81431F810105D
:201CFC00DFF8B404007825F06FFF88E1E878032800F28981DFF89C1431F81010DFF898040B
:201D1C0000781BF001FB7FE125F08CFEADF8080002AB61200C2103E1002661200E21012244
:201D3C008DF8086002AB1BE2DFF8606401208DF810003068002800F02C810069002800F0C1
:201D5C00288102A925F034FF042122F015FE002800F0EC81044625F0CCFF002800F01C811D
:201D7C002146054625F06AF93068BDF80C1022462B4606690298B0478DF81000284625F0C3
:201D9C00B6FF09E1DFF804442068002800F008818069002800F0048102A925F009FF20686A
:201DBC00BDF80C10826902989047FAE0DFF8DC733868002800F0FB80C069002800F0F780EF
:201DDC0002A925F0F5FE9DF80850BDF80AB0BDF80C90044625F089FFA6788046F72E28BFB0
:201DFC006FF00806B01C5FFA80FA504625F081FF002800F09D81012D044608BFBBF1000F60
:201E1C0000F09A813868A11CF3B24246C569029800914946A8470746002840F0938100275A
:201E3C006120332152462346667027701FF058F888E1681D25F059FF8146E81D25F055FF54
:201E5C008046092002AF242E18BF2F1808BF3526304609EB080525F072FE854201D9022075
:201E7C0057E1B9F1000F04D1304641463A4620F0A5FD304641463A4625F02AFD002800F080
:201E9C00E5800A2045E1E878012802D0002840F0488125F07FFA40F259600121ADF80800AD
:201EBC0002AB61203CE00120EC1C8DF80800E22021461EF0F9FC30B901200821224625F0EA
:201EDC0007FD8DF8080002AB6120032126E1E878291D012800F0E180002840F0E580E0201F
:201EFC00DFE025F05CFE0446681D25F0FEFE242C0FBF00200146204625F0CBFD8DF8080063
:201F1C0002AB6120122109E125F049FE24280CBF002025F014FEADF8080002AB6120132191
:201F3C000222FCE0E8788DF8080099488068D0F8302402A9E02090478DF8100004AB61206C
:201F5C001421EBE0914C206898B3806A88B302A925F02EFE2068BDF80C10826A02989047EE
:201F7C00014627E0894C206868B3C06858B325F016FE2168C968884726E080466938002607
:201F9C0080B2032838BF0126681D082C40D1057841E003208DF8100004AB61203021BDE06C
:201FBC0003208DF8100004AB61203121B6E00327CDE0002102AC204625F009FE6120322139
:201FDC0004222346ABE0032025F013FD3621A5E005F10806ED790146A8426CD9204600223F
:201FFC0025F070FC09288DF808006AD1002D68D020462946324625F06BFC62E0022025F0A4
:20201C00F8FC0A218AE0022025F0F3FC0B2185E025F06BFE0546404625F091FD0227A8425F
:20203C0088BF7700CFB100268DF808706120214692E002988DF810400422ADF8120002205B
:20205C008DF8110004AB6120082168E0012E62D1E22039461EF028FC5BE0471BB8B2F728F2
:20207C0028BFF727B81CC6B2304625F042FE002860D01FFA87FB00F1020982464846594644
:20209C0024F0DCFF404629465A464B4624F0A8FF0546002867D00A2770E00878022814D299
:2020BC0052201EF001FC00E002208DF8080002AB61200F2132E02046324625F003FC8DF811
:2020DC00080002AB6120072128E002A9522022F019FAECE702359DF8080015F8018BBDF847
:2020FC000C7001280ED1BDF80A0058B9384641462A4620F063FC012F04D1E22029461EF008
:20211C00D3FB01273068394642462B46466A0298B0478DF8100004AB6120214601221EF0FF
:20213C00DFFE0026304605B0BDE8F08F052031E710270CE0102776E7A9F169000328BFF45C
:20215C0061AE0227204625F0D2FD002FE9D000268DF80870612033218DF8096002AB022242
:20217C001EF0BEFEDEE78AF80170002761202146324653468AF800701EF0B2FE504625F046
:20219C00B6FD002D7FF44FAFCBE700BF400E00200C010020E8960200720101208496020096
:2021BC002DE9F04F8FB00C4648070FD4200441D4E00400F19781200600F1C081A00700F1D5
:2021DC00D481200500F1F3810020B4E1DFF820050178062900F2AD81DFE811F00700940127
:2021FC00AB01AB019901AB01A001DFF81055DFF804152A7891F82B30022A02D19E0600F13E
:20221C0098815E0700F19D819B0740F192810423037091F82C30DB0700F08B8191F82E30EB
:20223C00002B00F0528223F045FF0420012102F077FA57E2DFF8C8040394DFF8BCB4DFF802
:20225C00B094DFF8C474DFF8AC44DFF8B054DFF8BCA448F20208008802909BF800001BF03A
:20227C0081F8002800F03A8106460078D3282DD1F089404540F019813878002800F0158113
:20229C0099F80000012840F0108124F083FF002840F00B817088002840F00781A24604ACBD
:2022BC001221204624F0CAFE25F03AFA3046214617F04EFBBDF81C00B0F5285FC0F0888062
:2022DC00012002211DF0DEFE54462AE099F80010884217D1012834D0032840F0E680287830
:2022FC000138012800F2E180B078012851D0002840F0DB807078002800F0BF8000201CF07D
:20231C00ABFCD2E00A2811D194F82B00BA46B71C3071A16909B138468847384623F0C2FBAA
:20233C005746DFF8D853DFF8E4A3BEE02978002940F0BB80092840F0B880A168B01C884774
:20235C00B3E028780138012800F2AF80707860B194F8330094F83410013084F83300C0B2D1
:20237C00884202D9012000219DE099F80100032858D0022871D0012840F097803878002845
:20239C0000F08C8024F006FF002800F09280012085E07078002875D025F086F94FF6FE71BF
:2023BC00884203D1BAF81600884207D0AAF81610ADF8281053200AA91EF076FA1DF0D6F9D5
:2023DC0023F0D0FB00208AF826001CF015F96CE0CF48006809A90AAA16F0F0F8074602981B
:2023FC005446C64DDFF824A3874212D29DF8380010B1FD208DF838000420394614220AABD3
:20241C0022F022FAC34907EB470001EB8000012141720020012184F83200012002F080F970
:20243C00B94F42E0A2460AACAB20002122461BF049FA042004945446DFF8D0A2AF4D8DF8F6
:20245C00140004A80EF040FE25F06AF99BF800004FF4805141F288321DE0012020714FF466
:20247C008060ADF828000AA817F09AFF25F058F9A4484FF4805102680BE00FF003FB6069C0
:20249C0098B9A2E702204FF4805140F6B83289F802009BF8000025F097FB06E0002084F8B1
:2024BC0032000120012102F03BF9304623F0E4FDD3E694F8350020B1E0690028F5D08047B3
:2024DC00F3E70020002102220023ADF8280002208DF830000AA823F031FFB5E7039880F43A
:2024FC00004028E0854800780138012859D88048017803294DD0012953D1417800201DF0E2
:20251C00C1FD4EE0012001211DF0BCFD11E023F0D1FD0420012102F003F90AE00021322245
:20253C000170744880F82A1073480421007825F04BFB84F004000FB0BDE8F08F84F080009E
:20255C00F9E70522027091F82C2092072CD591F82E204ABB052202600120487000201BF00E
:20257C0043F8022023F050F8E3E764480078013801280BD80020CDE90A000AA812F08CFA3A
:20259C0020B15D48022100781AF0EEF984F00200D1E78178022904D10121817000201DF0B6
:2025BC004DFD84F48050C6E705200021B3E753480078002840F08680DFF838A1DAF80C5091
:2025DC00002D79D004A80DF1280B01300BF104060390002D6DD0A87A18B10138A872000614
:2025FC0046D19AF83180B8F1000F11D00020A91C08228DF82800304624F064FE584618F07E
:20261C00A3FA28B12A88BDF82A00314621F022FFAF1C0DF127015A46384615F0CFFF814645
:20263C00384609A921F08FFCB8F1000F05D09DF8380040F0020002281CD1DAF80800A0B1E4
:20265C0003983946082224F03DFE022000220C238DF81000BDF82400ADF81A002648007845
:20267C0004A9009109211FF0B6F828461CF0DCFEED68AEE7384622F0BEF99DF827000128AF
:20269C00DBD15846142124F0D9FC224A09EB490000215B4642F8201002EB8000142241609D
:2026BC004172FF2049468DF83800042022F0CCF8C3E7DAF80C0028B90F484FF4006100780A
:2026DC001AF022FE84F4006035E7013A012A09D8032202600120487001201AF085FF012049
:2026FC0022F092FF287800287FF423AF04205CE7EC000120380800207B010120A80C0020C9
:20271C0034970200480E0020970E0020A8F50020C400012014CC00202DE9F04F9BB0DFF87C
:20273C0018850546DFF8146598F800000328307040F04F81002000211822082388F80000C4
:20275C0030700CAC204624F063F92046002122F0A7F8DFF8EC94B0603A21484624F06EFC29
:20277C004FF0FF30A9F81400C9F81000C9F80C0021F0D6FD002029461DF0FCF906F11001FF
:20279C00F06025F003FAD6E90502DFF8B874B0FBF2F1C9B2032928BF032189F80010397078
:2027BC00B2F5005F40F01281B0EB413FC0F00E81F068002800F00A814FF40050FF224FF0EC
:2027DC0000084FF0885BA9F80600FF2089F8032089F8058004900020079000200A9000201E
:2027FC00089000200690002005900020099000200B90FF200190FF200390FF200290CCB2B5
:20281C00A04580F0E9805FFA88F600211AAA0423304624F027FDDFF834443046002119AAA4
:20283C00A0473046012118AAA0473046022117AAA0471A996FF06F0050FA81F2C8B20E2A23
:20285C0006D8012303FA02F245F201131A4203D1A0F1FE02022A04D242F28352B2EB914FD5
:20287C001ED0304613F0F0FFDFF8D0130028087040F0D280304600211AAA042324F0F2FC86
:20289C00DFF8C8433046002119AAA0473046012118AAA0473046022117AAA0471A99C8B24A
:2028BC0008EB4802CA463D4609EB8209C1F30142090A4C46FD2804F8160F61709DF86610EF
:2028DC00E270A17001D9102135E0BDF864104FF6FF7291422FD112A81FF028FD3046002122
:2028FC004FF088524FF400534FF4005724F0BAFC6FF0030313FA87F7B8B250F80B104A1C86
:20291C0001D10328F6D801220126D3B2042B06D8CBB2FF2B18BF16460132090AF5E740F8C0
:20293C000B10CB48129900684268CA48904757FA86F081B22078A9F81C109DF862107028A9
:20295C0089F81A10BDF86010A9F81E109DF85E1089F81B10BDF85C10A9F8201011D078289A
:20297C00D14614D07C282F4616D07E281AD0FE281FD0FF2823D10798CDF8088001300790CD
:20299C0020E00998D1462F46013009901AE005982F460130059015E00698CDF80C8001303D
:2029BC0006900FE00898013008901FFA88F0019008E00A98CDF8108001300A9002E00B98BC
:2029DC0001300B90397808F1010818E7012088F800001BB0BDE8F08F0B98984E00060BD162
:2029FC000A98C0B2012807D80998C0B2012803D80898C0B2012811D99348042200240270CC
:202A1C00CAB2E0B2904210D213F01EFF31780134084339783070F3E7884E1BE0079BD8B267
:202A3C00A04219D1884800220270002089F8030089F80100481E7E2189F80200B9F81C00CF
:202A5C00A9F80600002020F07BF999F80200FE2120F076F93078BCE70998000624D00A9856
:202A7C00049A000603D1029A180600F08480764802210127D5B289F80220017017FA82F0ED
:202A9C00B0FBF4F101FB140089F80100284613F0DBFE30702846FE2120F052F989F8057030
:202ABC00002000F075FBD5E70A98049A000621D06548012189F80220017011FA82F0039A8A
:202ADC00B0FBF4F101FB140091B2FF2989F801001FD10199FF2919BF89F8031001EB410002
:202AFC0089F8030000EB400009EB8000808BA9F80600AFE7DDE90520104300063FF47CAFAD
:202B1C0021F0E2FBA04280F085804F48032101703EE0480089F8032010FA82F009EB80002E
:202B3C00818B1829A9F8061094D30739D0B212AA89B215F009FE9DF853004007B0D5B9F8E4
:202B5C000610BDF85620002399F8030000930323891A12AA073989B207F04AFA00287FF4F8
:202B7C0079AFBDF8541000293FF474AF9DF858001CF06CFA6EE721F0A7FB0621A04232488F
:202B9C0038BF03210329017002D0062952D061E721F09AFB054689F80C0000EB400009EB59
:202BBC008000408BA9F80D000CF0DCFD39782844B0FBF1F202FB110089F802000130C2B24A
:202BDC00B2FBF1F202FB110089F801007C2020F0D1F8FF2812D17E2020F0CCF8FF280DD1C3
:202BFC00FF2020F0C7F8FF2808D1782020F0C2F8014699F80100FF2918BF0846C1B289F84F
:202C1C000300490051FA80F009EB8000808BA9F806001AE70798000609D099F80200FE213A
:202C3C003C46374620F08CF82478029A40E7064806210170FEE700BF750E0020D800002061
:202C5C0040FA0020730101207F01012069740200D8010010004003402DE9F04F89B01FF0E0
:202C7C00E9FDDFF8EC148122DFF8F084DFF8F0A4DFF8FC74DFF8F0E40A70DFF8D81408608B
:202C9C00DFF8D404FF2101700020DFF8E014A8F800008AF80000DFF8CC040968007891F8B2
:202CBC0008B04FF6FE718EF8000059448AB2B968D1F80031DB899A421BD80422DFF8B844E6
:202CDC00A8F80020DFF8AC24126893681D0ACEF80C30C3F30159AEF804501D0E2570D1F840
:202CFC00B850B9F1020F2E780CBF002EB9F1030F10D123F045FE24F0D2FFDFF878140024F7
:202D1C000A6813681C7112680A6024F0D0FF09B0BDE8F08FC3F30F2505F007050EB1002DA2
:202D3C00E7D0DFF858C4042D9CF800C008BFBCF1000FDED036B1DFF848643678862E01D179
:202D5C00022DD6D19D0216D403F4E063B3F5007F08BFBCF1000F1ED0DFF8241409788629E7
:202D7C0009D1002075461FF09DFDDFF81004AE4690F800C02878BCF1000F49D1002847D0FD
:202D9C000128B6D003283CD0022841D1BEF804004007AED13CE0D1F8D40090F88300022887
:202DBC0077D0A1460520147BF246A8F8000024F076FF0546DFF8C8030078862866D1B8684A
:202DDC00016C096811B9D0F84C05804760B20021002624F0D4FFB9680A6C12685077086CC3
:202DFC0000688677086C0068C477284624F05FFFBAF8041099F8000001F010011BF050FCAB
:202E1C0047E0BEF8040000F0070003287FF471AFBEF8040001073FF56CAF810402D481050E
:202E3C003FF567AF9EF80E10C1F38105012D3FF460AF8E09012E3FF45CAFB9F1010F11D827
:202E5C0040F0020101F0070103290BD155EA06013FF44FAF35B9B968D1F8AC10097800296D
:202E7C003FF447AF4FF6FB71B9F1020F594413D1C54A535D925D02EB030945EA06024306F9
:202E9C0015D4002A18BF09F1020914E0284624F00EFF23F033FB2EE7BA4A535D925D02EBBE
:202EBC00030946B1420648BFA9F1020903E0002A08BF4FF00209C0F300205FFA89FB8BB2F4
:202EDC00ABEB00028EF801009A423FF712AF0844B968A0EB0B00AEF806007430D1F8501266
:202EFC0080B28847A049002888603FF402AF7421CDE901B90396AB4624F0A0F89A4F002094
:202F1C00B8709E48007820B9387900F020008AF8000078789AF80010964E4FF000092546CA
:202F3C00002993492CD000284FF0000029D1B88800F00700032807D0012821D18868D0F807
:202F5C00D40090F88200D8B1C8684069007818B123F0DEFEFE280DD085488068D0F84C0217
:202F7C00804738B982488068D0F844028047002800F0EA807C4F0120B8707E4E254600E049
:202F9C000020BC6804F1740184F83AB06160A1657978BB88FA880029A381039B228184F87A
:202FBC0030302B7808BF994697F80EB084F84990A4F85C20FF22B8F80030A273CBF30119A4
:202FDC005D1A797B029FA8F8005001F0780160F3820101EB09002074380600F0AD8030681D
:202FFC0004AE019A10FA85F000F10801304624F00DFF55FA87F0CBF38105A8F80000207C13
:20301C0000F04007E5B3B9F1020F00D13FB9BDF810000236A4F84400A4F8420002E0B4F8F8
:20303C00440004AEDFF86481B8F80E10884204D04FF6FF71884240F08280032D12D104F19D
:20305C003200314624F011FE474C08F10301A068323022F092FC4649002870D094F80EB0AD
:20307C0008360FE036F8020BB8F80C108842608606D04FF6FF713C4C88423D495FD101E0DC
:20309C003B49394C0020B0EB9B1F22D04FEA9B10B9F1020F08D157EA05010DD136F8021BBC
:2030BC00A268A2F8421007E0A1680A7C52065CBF36F8022BA1F84220032806D1A06831463E
:2030DC00283024F0D2FD284C02E03088A16808852749A0888968B9F1010F11D8D1F8AC2034
:2030FC0012786AB140F0020202F00702032A23D135B9264AA368D289B3F8423093421ED11A
:20311C0000F00700032806D0012815D1D1F8D40090F8820080B1A068D1F848128847124E5A
:20313C0050B90020F17BB070B07BC1F3011100F078000844B168087408F0B4F9DBE515F01A
:20315C003CFA17F069FFD6E5074FB87815E700BF88010120180101208D0101208EFF002072
:20317C008B0101208A010120AC0B0020580101200C010020A80001209B0101209A0101201A
:20319C0090010120D4960200D0960200D0FF00202DE9F04F9BB00446DFF80805406818B15F
:2031BC008047002800F03C82DFF8FC04DFF8FCB40B940DF1300A4FF0F8080078411E002CDF
:2031DC00099118BF01218BF80F109BF802900BF118049BF80110002700250A91C0B287429B
:2031FC001FD2B94517D0FEB2002152460423304624F038F80C9810F4403F40F0040018BF61
:20321C000135C0B27C2806D130460621F82222F0D1FF84F80080DFF890040C34013700787F
:20323C00DCE7E9B201380022884204D19BF80500002800F03282DDF82CA05046BAF1000FC5
:20325C0008BF1020049013AF00200390DDE909560024280400F0E6819BF80F0010B90120FA
:20327C008BF80F00F0B200210CAA04234FF0000823F0F8FF0C98BAF1000F1DD010F4403FE1
:20329C0017D04FF40050DFF820140134013DABF810009BF80F00097801388BF80F00012058
:2032BC0050FA86F0B0FBF1F202FB11068BF80D60CFE7A046CDE90956C0B20A9D002470281A
:2032DC0003D0E8B270211FF03BFD5FFA89F600210CAA0423304623F0C5FF9DF83000FE287F
:2032FC0003D03046FE211FF02BFD30460621FE2222F060FF4FF400500BF116018BF80C9020
:20331C008BF80D50ABF814405A46ABF81000FF208BF80E00E8B2400050FA85F0D57B01EBE2
:20333C008000B0F806B0DF4804707000A2F812B050FA89F001EB8003FE20194601F8020F73
:20335C0033F8060F02910790D7480193047812A81EF0ECFF0A980A9A089655FA80F0013829
:20337C0090FBF4F101FB14000090D5B20A92B54200F04A81A81BB0FA80F040090590002071
:20339C0006900020C00740F093801FFA8BF0162871D9C4480078002840F03C81ABF1070AEF
:2033BC0028460DAA1FFA8AF4214615F0CDF9BDF8426006F11000A0421AD89DF83E00962840
:2033DC0016D19DF83F00C10701D1800703D40020AAEB060B2CE0AAEB06009DF83D20314648
:2033FC002B4684B2204618F01FFA20B3ABF1080A1FFA8AF01728C0F00D81AAF116043628DF
:20341C0028463A4688BF2024AAEB040AA3B21FFA8AF123F027FF2004EAD017FA84F010F8E7
:20343C00010C962801D0013CF5E704EB0A0B0020DDF82CA0A6E7F01D83B2079813FA80F10A
:20345C00B1F5005F01D90120F2E780B28B469A4918440A1A2846214623F004FF0698013057
:20347C000690BBF5005F07BF01204FF40051594600200791ACE7069810B18C4924F033F8B3
:20349C000098C0B2854200F0C2800A990120089E50FA81F084490978B0FBF1F202FB1102FC
:2034BC00824902EB420001EB8000B0F81CB05CE7069810B17D4924F016F80020DDF82890DF
:2034DC000590784C2078002840F0A48007981021C0F50052103883B20898C1F200121EF09C
:2034FC0041FF217808431299207071480068426870489047059888B16B480078291801397B
:20351C0091FBF0F202FB101968495FFA89F0400050FA89F001EB8000B0F81CB0634807994A
:20353C00089C0123A0F814B08346018280F80E900198BBF9122001809BF80D10204620F0C3
:20355C00D9FEBBF914209BF80E102046022320F0D1FEBBF81000BAF1000FC0F5005004D01F
:20357C0004998842A4BF01210391049988424FF07C01B8BF7821089C20461FF0E1FB0CF08B
:20359C00F1F805469BF80F000621FC22401B8BF80F00204622F00EFE0299FC209BF80E30FB
:2035BC0008709BF8021015FA88F00A9301443E480078B1FBF0F202FB101909F101018BF838
:2035DC000290CAB2B2FBF0F202FB10118BF8011003EB43010BEB8101898B102906D10A990F
:2035FC000131B1FBF0F202FB10100A900998401BBAF1000F09903FF429AE039880F00100D3
:20361C00C0077FF423AE0DE00120354658E7DDF8009056E7264812990068426825489047AA
:20363C0000223AE07C201FF0A5FB0446FF281DD17E201FF09FFB0446FF2817D19BF8014014
:20365C0004EB44000BEB8000807DFF280AD016489BF8021000780144013991FBF0F202FB42
:20367C00101403E020467E211FF06AFBE0B2FE218BF80340400050FA84F00BEB8000808BB8
:20369C00ABF806009BF802001FF05AFB00208BF80500BBF81000C0F5005210B21BB0BDE8C8
:2036BC00F08F00BFD80000207301012040FA0020D801001000400340002000112DE9F843DB
:2036DC0005460C46480414D4A00023D4A0075DD4600500F18080200500F10781200700F182
:2036FC003C81600040F1F78018F0D4FC24F08044F1E024F0D4FADFF824140F6D3FB1D7E94B
:20371C000A1202F0E04201F00A01891848D024F0CEFA5DE0BC48DFF80874016841F080011D
:20373C000160B878012804D104201FF071FB0020B87024F0B4FA0646B448406D01680420B3
:20375C008847DFF8E4130A68904219D12A7EBAB1FA68AAB1DFF8C403806C002800F09880F8
:20377C00C16840F603020988914206D0C06840F604010088884240F08B8005F1140089E02C
:20379C0040F6C4120860C5E9042285E009F050FADFF88803006C002808BF24F002049AE0CC
:2037BC00D7E90A65D7E90A12AA43B143C7E90A1224F07DFA56EA0501B86818BF002807D06E
:2037DC00D7F808C03869B7F9301032462B46E04724F480447FE024F062FA054621F060FE30
:2037FC00002800F0B780CD48876B002F00F0B280DFF82C830420CD49002288F81800C7487D
:20381C0022F033F824F0DAF9C94824F042FAC5480068006B8047C8F810000125042088F8C6
:20383C00025020F019F8386990F82810C8F80400490703D5436A04210022984701201AF0AE
:20385C0075F9D8F80400457611F08CFBD8F8040081680B461A465B684BB11E88A6F603064F
:20387C00072EF7D805FA06F616F0830FF2D0537B03F0F003013353730023FD6853602D8835
:20389C00A5F60305012D00F28A80C8F810309FE005F110001CF0D6FE304624F008FA1FF03F
:2038BC00F3FF78B12E6A28466FF4807100224FF00073B0479948806B10B118F0EBFB01E050
:2038DC0044F00204EE692846002100224FF08063B04724F0005434B1984821462830BDE8E0
:2038FC00F84324F01CBABDE8F8838D4EB078012804D104201FF08CFA0020B0701FF0C4FF9B
:20391C0038B170686FF4807100224FF00073056AA847306950B183480068006B80473269AA
:20393C007168801A000BC860002030617B4D82490022284621F099FF02203076286C20B11B
:20395C007E480221283024F0EAF918F0A3FB24F40064C0E724F032F941E024F0A0F90546F2
:20397C0021F09EFDA0B1DFF8B88198F8000000070ED498F9000000280AD4684612F0CCFA98
:20399C0008B1009820B1DFF8B89199F8610048B324F014F918F07EFB24F008049BE703464F
:2039BC0033F8385FA5B190F8445090F8456005F0F00580F8445006F0F005013580F8455066
:2039DC0000255360C5634587507B00F0F000507358480022C2610160012022F0C3F924F444
:2039FC00806478E700260127602E11D009EB0600817A31B18772407A07FA00F0C0B21FF0AF
:203A1C0021FA2036F0E700BFCC2108408C010010032088F81800464824F03BF924F0CEF846
:203A3C00444F3E4D0022786900207861F968F8602846444921F019FF3A480068006B804757
:203A5C00D8F80C10D8F82020411A02EB1130B0EB113F38BF4FF0FF3098F82410C8F82000D1
:203A7C0021B1D8F80810B0EBC12F20D922F08AF9B8B140F60900414621F83C0F00204880DC
:203A9C004A7B02F0F00201324A730A7B02F0F0020A734860F8613960B8F83E0010F4406F50
:203ABC00FAD00020C8F82000012088F824001BF0F5FF2548002101600220002122F052F9CD
:203ADC0002201FF0A5F9102010F076FD98F8010020B9D8F80400503024F019F91B48807819
:203AFC0010B90D2010F068FD98F8250028B1002088F8250005201FF08BF9002088F818008C
:203B1C001348C8F81C000220B5F85610B5F85420914208BF072017F0A3FC3BE7B806002095
:203B3C00900500208C010010B40D002099540200C0F8002000100440AD000100F805002050
:203B5C0020F6002015C10100000004603C96020091F900002DE9F04F8DB084780226142C84
:203B7C0000F21F820546DFE814F02900150015004A0085001C021C021C021C021C021C02AA
:203B9C001C021C021C021C021C028E009C00AF00BE00CC0001206A78022C8DF8310008928F
:203BBC0040F0C080E878291D03288DF82C0040F0E18009A8082223F085FBE0E010208DF883
:203BDC002400102024F095F898B10446DFF8E00321466060E81C0FF0A9FB8DF8240028B92F
:203BFC00204621F0EDFC8DF8240010B1204624F07EF8002609AB642000210122C2E100208A
:203C1C00CDF82A00ADF82E00CDF8260002208DF82C00E81C24F069F8ADF824006979A879C3
:203C3C008DF82D1023F0D6FB8346E81D24F05DF895F80C908046687AAC7A95F80BA04FEA23
:203C5C0049078DF83100384624F053F8002800F01081CDE9074806464FF0000805EB08002C
:203C7C00474570D00D3024F040F826F8080008F10208F3E7E8781FF09BF98DF8240009AB70
:203C9C006420042189E1E978032900F25281281DDFE811F00400510155015D0117F082FC07
:203CBC0076E1E81C24F021F8C04C6668002E00F0E4806A79002A00F0E4803368A91D1844E6
:203CDC0023F000FB0020D9E0B84EEC1C04212046376820F051FE002F4AD0B968814200F02D
:203CFC00A0803F68F7E7A888ADF82400E87809A922F04EFB8DF832000DF1320364201321FB
:203D1C004BE10026E878ADF8246009A921F0F1FDBDF824000DF1320314210222ADF83200BF
:203D3C0064202FE1E81C02218DF82C1023F0DDFFADF82400002005F10608ADF82E0068795B
:203D5C008DF82D0026E0BBF1000F00F0B580437B0DF131010E30CDE90496CDE900010798DD
:203D7C005946CDE9020A09A8089A1CF038FBA4E0012000E1084623F0B8FFADF82400287B2A
:203D9C008DF82D0005F10D0023F0AFFFADF82E0005F10F0898F8000023F01CFB054608F1B3
:203DBC00010023F0A2FF98F8036098F804A098F805B08146022C8DF8326009D108F10600E1
:203DDC0023F093FF074608F1080007F10A0104E098F8067008F1070039464DB10A3189B2F4
:203DFC00FB2907D3DFF8C481D8F8040000286ED0022009E00DF132018DE8030C09A84A4652
:203E1C003B46294603F0A8FC089E8DF8310006F0E000202840F0C4800DF1310364202146F4
:203E3C00BBE0EC1D204623F060FF6D7A002D00F0978005F102098246484623F05AFF0028E4
:203E5C0000F098800026457080462A460670786800EB0A0108F1020023F034FA5FFA89F2D1
:203E7C006420122143461DF03BF8404623F03FFF97E010208DF8320024E010208DF8240094
:203E9C0016E0D6F800C0F38AB28A3169757EB77E06F11800CDE900C0301DCDE9025703F033
:203EBC005BFC8DF82400606823F021FF0020606009AB6420112170E002208DF83200304602
:203EDC0023F015FF0DF132036420032165E007F11C0023F00EFF0028C8F8040055D000F149
:203EFC001C010C22016000208DF83100D8F8040009A9043023F0E6F9D8F804000F214FF431
:203F1C007A7205612A4DC17680F81AB080F819A00676C782A0F814900821287823F054FEE3
:203F3C00089E00283FF473AF2878082118F01CFD6DE702202CE0007818F046FD28E0007893
:203F5C0023F048FA18B322F03DFF002020E023F0CCFEA97923F044FCB0FA80F0400917E00B
:203F7C003068B84201D138683060384623F0BFFE002000E010200026207064201221022282
:203F9C00234666701CF0ACFF0BE010203CE701208DF8240009AB6420102101221CF0A0FFD0
:203FBC00002630460DB0BDE8F08F00BFEC0C0020720101202DE9F04F8FB00C4608040BD42C
:203FDC00A00425D4DFF87C53287802282CD1E1077CD1A10641D558E0DFF86003007819F0D6
:203FFC00C1F990B10178DFF8582305460020602808D0135C08308B42F9D1104450F8041C1A
:20401C0028468847284622F037F884F4004591E11CF0C8F828B10546FCF714FE284622F0F4
:20403C002BF884F4005585E1A1062ED4012814D8E10600F11381610600F12B81210600F1C8
:20405C003981E10500F13B81210500F13D81E10400F15081610400F15781A10700F1DE8056
:20407C00A10500F1F680210700F10D81610500F11581E0034FF0000540F15C811AF0ACFC9C
:20409C00B348C57084F4803554E1AC4F202138781CF0E6FFDFF8B882D8F80810084324D05D
:2040BC0023F0EFFD054623F0C3FAD8F8081059B168434FF47A72B0FBF2F0401A4FEA500589
:2040DC0038BF6FF000458DB9002570E0A44890F82C100F2906D190F82600022802D30020E2
:2040FC001EF078F984F0010524E1012500200421002220F057FF06464FF006094FF0FF08D3
:20411C004FF6FF7A0DF1080B002E4DD0304604210022374620F046FF06463889401B38BF7B
:20413C00002038810004EFD1B87BD0B301280AD17889400707D4386887F80D90B721407B9A
:20415C001BF0E8FFE0E739685A468DF80680ADF804A0086AC97F0CF091F901281BD1B87B6D
:20417C00B97A8DF838000907788A40F08002ADF8362006D540F4C070ADF83600387B8DF822
:20419C003A00786910B1007BADF81800584601A9002202F0A5F9387B87F80D9015F06AF8BF
:2041BC00B2E701207873AFE7DFF8A481634F21F01DF800200121002220F0F4FE18B13878F5
:2041DC00202118F0D1FB002004210022002620F0E9FEC8B306890421002220F0E3FE28B10F
:2041FC000289B1B2914228BF1646F4E7A8B2B1B2814224D988BF08462021401B80B24200A2
:20421C00387823F0E1FC23F03CFD054623F010FA68434FF47A71B0FBF1F615E051480078BD
:20423C0008B302AD284623F042FC23F02BFA4E490B784E490A78294619F0F4FB20E03878B7
:20425C00202118F091FB0026C8F8086084F0200570E014F0CBFC84F400756BE007F088FCB8
:20427C0084F0100566E03E48418B012023F037FD2878022804D131480121007819F044F8A2
:20429C0084F0020556E03248012184F00805817050E00BF0F3FB84F040054BE0022808BF55
:2042BC0014F0E8FE2E480121808C23F00AFD84F480653FE022F020FA84F080053AE020F06F
:2042DC00CDFC84F4807535E01AF0EEF81E48007801280CD11D48007848B14FF47A7100FBA4
:2042FC0001F216484FF40061007823F06AFC84F400651FE01648017819B1002101701AF0A3
:20431C00D3F884F4805515E01348006880B11149097801290CD180471048006800B180479F
:20433C0006484FF480414FF47A72007823F049FC84F4804528460FB0BDE8F08F74010120EC
:20435C00D48F0200A80C0020AA0E0020A90E0020600C0020A70E0020DC090020E8090020E2
:20437C00A8F50020830E0020AD0E0020AF0E00202DE9FE4F8846080426D45FEAC87004BF80
:20439C000020BDE8FE8FE548056823F07AFC044623F04EF960434FF47A714FF6FF72B0FBB6
:2043BC00F1F14FF6FF70002D00F01A812B886C88CB1A9BB29C4240F21C81E31A94B2A342E5
:2043DC00B8BF1A46ED68EEE7DFF840A3CDF804809AF8000018F0C6FF002800F0FC8006467E
:2043FC000078012840F0EC80DAF8041096F83390D6F814B096F8138021B148468847002823
:20441C0040F0DE80718896F83100022220F086FB0546002842D0287A297CA0F10108FF29F7
:20443C0000F0BB80707F4F46C00718BF0027E97C287D0144B94204D8E974FF2101FA00F05E
:20445C006874A969A87C96F83020896A10FB0710F16A22F037FF287D697CB7FBF0F202FB7D
:20447C00107001228240D2B20A436A74C8457CD196F83010AB7C13FB0713A9698B844FF431
:20449C00FF7303FA00F0C0B21043FF2868746CD1287C19F01FFBFF2028747FE0707FC00705
:2044BC0000F08E80B07F22F095FF002800F0888004461C2023F01DFC002800F081801C21E5
:2044DC00054622F0BBFDB07F02A921F012FA9DF8090002212875284621F094FA708896F8C3
:2044FC00312096F8301096F83330A880287DEA71FF2202FA00F0687460680078A974287486
:20451C00302013FB010080B220F03AFF0028A8615DD004461A20B11C2060708CA080A01D9D
:20453C0021F044FFF27F04F13000B17F96F82830C4F81CB084F81980A062307CE273744A01
:20455C00217563750121A075928C2282F28EA285F28C6282B6F81100A4F817009AF80000CB
:20457C0085F8089018F000FA55E723F08AFB044623F05EF860434FF47A71B0FBF1F0654976
:20459C0028806348097800794843642148436249097800FB0100688000E04F46E87C297D88
:2045BC006A7C01440139B94218BFC8450CD186F83300708806F11C0186F8342015F04EFDDF
:2045DC00304621F059FD03E7FF2AF9D1EFE7284621F028FAF4E7019880F40040BDE8FE8F34
:2045FC0092B282424BD049480121007823F0ECFA45E0A879022806D1287CFF2837D0A8692E
:20461C0021F03AFD33E023F03CFB044623F010F860434FF47A71B0FBF1F03F49288095F85A
:20463C003800097888421BD295F83620FF2A06D195F83720013085F8380085F8362095F8E1
:20465C00351095F8394082F0FF0300200126C7B2A7421DD206FA07F71F4214D10130F6E795
:20467C00EA8BA87E95F82A10E9231DF00DFB284621F0D8F925480121007818F075F988F056
:20469C000100BDE8FE8FFBB201441A4385F83620AB8F95F83440C8B204FB10339EB2A6427A
:2046BC0003D2FF2285F8362002E0FF2A08D12346184A174E1278367972436426724302E0F2
:2046DC0095F83A2023466A802A8D0E0606D022F0200244432A852A6C224404E042F0200146
:2046FC002A6C2985297A85F82E10E9796A6285F82D10D9B269840549496811B188470028E4
:20471C00B8D105F1100004F0BBF8B3E7CC0C0020A8F500209D0E0020A30E002044E1002017
:20473C007FB50138072800F24C810C46DFE810F008002C0054006E0089004901A600C900B1
:20475C00CB4800780138012800F23B81002C00F047810020032100241DF076FCC64DC74EAF
:20477C000420042132222870307823F02DFA0820002106F05FFA30786C704FF4805104B022
:20479C00BDE8704018F0C0BD0020002522F02AFEBB480121017004208DF80D0074B1B54836
:2047BC00B34C45852078012803D1072021F02AFB2078022802D1062021F024FBAE4804211C
:2047DC0032220570AD48007823F0FEF9A94890F82B1001F0FE01F2E0A54800780138012840
:2047FC0000F2EF80A54804213222007823F0ECF9002C00F00F819F4C9F48012101702069CC
:20481C00002800F0EC801DF06DFFF8E70120002C8DF80D007BD0974800219B4A80F82A10DF
:20483C00984822F09BFF924C2078012803D1072021F0E8FA2078022870D1062021F0E2FA2D
:20485C006CE002208DF80D008A48002C73D000218D4A80F82A108B4822F080FF00200321A9
:20487C001DF0F2FB824C2078012803D1072021F0C9FA2078002877D1092073E07C4D002057
:20489C008DF80D00002C28787BD018B9092021F0B9FA2878022806D10820002106F0CAF9F2
:2048BC00042021F0AFFA0FF0E1FE73480021C822017070480D2180F82A10704823F013F97A
:2048DC0078E005208DF80D0069480078022878D1002C00F0C38068480022C178C270017004
:2048FC0042F20800002106F0A5F962480D2190F82B2080F82A10C17802F0DF02002980F8A1
:20491C002B200CBF04200D2021F07CFA59E05848007818B95748022180F82A105648002138
:20493C0032220170554823F0DEF8524890F82B1001F0FD0143E0082180F82A104C490978B0
:20495C00012911D890F82E0070B900200DF10A018DF80A0052201BF0A7FF22F0BFFA1DF096
:20497C000DF8002021F04EFA4348002132220170424823F0B8F83F4890F82B1001F0FB01A8
:20499C001DE03C4C022812D194F82E0078B194F82B00002140F0200084F82B0005208DF80D
:2049BC000D00082006F046F90A2021F02BFA022084F82A002F4890F82B1001F0EF0180F8B6
:2049DC002B102C480022032390F82A008DF80C002A48007803A900910A211CF0FCFE7FBDED
:2049FC00244C0720254D4FF4805184F82A0001208DF80D00287818F087FC0020002620F0A4
:204A1C0031FA2878022141F2883284F82B6023F0DBF8D6E7174C022000218DF80B1084F833
:204A3C002A001548017094F82B000DF10B0100F0FD0084F82B0001208DF80D0052201BF0DD
:204A5C0033FF22F04BFA1CF099FF002021F0DAF920690028B5D01DF045FEF9E70548022133
:204A7C0080F82A1090F82B1041F02001A7E700BFA80C002038080020EC0001207B01012028
:204A9C009A0E0020A8F500206E0E002092B0DFF8D492D9F8000010B1002180F84510483062
:204ABC001FF0A2F823F0FBF88046072010F04CF816F00CFD10B1AC4823F0F6FA19F08EF8A4
:204ADC0001AD284622F06EFC0427002029468DF8047022F06FFCA54C206022F0ABF80AAD15
:204AFC00284622F02FFB002029468DF8287022F031FB9F4E306022F0A7F806AD284622F0A5
:204B1C0031FB002029468DF8187022F033FB3168984D286019B9984823F0C6FA286810B98D
:204B3C00964823F0C1FA206810B9954823F0BCFA1BF03CFAD9F800004FF0FF3438B1CDE993
:204B5C00104410A9082221F043FB01281BD1CDE91044082023F0CDF8002846D005460026E5
:204B7C00052E04D822F05EFFA8530236F8E74FF6300029460822E880824822F0A3FB28462B
:204B9C0023F0B5F809E0D9F80010CDE910440029DFD07C48082222F095FB10AA01200821F9
:204BBC0022F090FE092800D0D8B91FF0A2FF800712D4CDE91044CDE90E440EAB012000217D
:204BDC00082222F00DFA60B90EA810A9082221F0FFFA002800F0C0806A4A0120082122F052
:204BFC0077FE6849E2201BF05FFE11F015FC282023F07FF8644E0028306055D0634F644C34
:204C1C0007F10C0522F06BFF22F0F4FA3068056007F1100522F063FF5E498968D1F84C13B5
:204C3C0088473068456007F1140522F058FF1AF0C3FD3068856007F1180522F050FF18F00D
:204C5C0021FA3068C56007F11C0522F048FF1DF073FF3068056107F1200522F040FF1CF0F7
:204C7C0005FF3068456107F1240522F038FF1BF093FD3068856107F1280522F030FF21F0DC
:204C9C00BFFD3068C56107F12C0522F028FF1EF033FF3068056207F1300522F020FF3870D7
:204CBC0022F0E0F83068456217F0E8FB22F053FC404622F0FCFF16F017FD22F0D6FE0120B0
:204CDC001CF08EFB18F034FC34480078022808D131480078012804D14FF40040012105F06B
:204CFC00A9FF2A4D4FF48041287822F049FD2C484FF0FF31006823F0D3F9DFF8A8904FF005
:204D1C00000868684FF0FF3123F0CAF93068002750F82710096821B9791C092F0F46F7D3E5
:204D3C00EFE722F0BDF9316851F827100C68C1F8008022F01FF859F82720002021469047D4
:204D5C00044622F0ADF9316851F827100A6822430A6022F00FF8D4E70A480EA9082222F0C2
:204D7C00B1FA3EE7400E00203C900200D4000120D8000120DC0001205A9002006D90020035
:204D9C00809002008600012050010120B4040020F92D02000C010020C20E0020A80C0020DB
:204DBC002C010120549302002DE9F04F89B08A4608040DD45FEACA7040F01D815FEA8A70C1
:204DDC0000F12B815FEA0A7000F13381002042E1A24F387818F0C6FADFF88892A04C0646DD
:204DFC004FF0000B48F21508002E00F001813078312838D0322849D0D32840F0B380F08903
:204E1C00404573D0382840F0AD80CDF820B0CDE906BB304606A91EF0C7FD9DF81C100529FF
:204E3C0068D8307B002840F09D809DF81D00002800F09880052800F29580069821F081FEB2
:204E5C00002840F08F80707C87497870708808809DF81D00214601388DF81D0006A890E891
:204E7C002C002CC17EE0B87803287BD899F82E10804821F066FE002874D1FF207C496071C3
:204E9C0070880880B088794908806BE06079FF2814D0002015F0D2F90246B9F8701078786C
:204EBC003346CDF800B011F0B3FD6079002859D038780821322222F087FE53E099F818105D
:204EDC00706820FA01F2D2071ABF3144097A002106F1080200231B2B42D020FA03F5ED0784
:204EFC0002D0D55CA9421ED80133F4E730461FF019FF37E0FF293DD0FE2956D199F8721059
:204F1C009DF81E00884202D860BBFF292AD11BF0EFFA069900201B2859D021FA00F2D207DB
:204F3C0057D10130F7E7B9F86E004F49334608804E4802884E48018810200090002011F046
:204F5C0067FD0120F870B87840B93C2002214EF66022B880387822F037FEB8780130B87022
:204F7C0084F805B0304621F087F8387818F0FAF9064639E799F872109DF81E00884203D85C
:204F9C000028EFD1FF29EDD11BF0B2FA069838B1D9F82810814203D0C9F8280020F042FF10
:204FBC00BDF8200021F068FCDCE7307B0028D9D170882D49802200230880707CCDE900BB33
:204FDC00CDE902BBCDE904BB10F020FCCAE71B2000E0C0B299F818108142C3D0264908707D
:204FFC0099F80700642100FB01F23878012162E78AF400402FE020491A4C08782076E120BC
:20501C001BF052FC20F00EFF0020A4F87000012015F014F98AF001001DE010488188B1B164
:20503C0001394EF6602281800078022122F0CCFD0FE00B4C607938B12179206821F081FD24
:20505C0010B96079013860718AF0080003E0002181708AF0020009B0BDE8F08F540B002039
:20507C0028000120A8F50020620001207EFD00207AFA002000F8FF07770101202DE9F04F70
:20509C0085B08846080418D4AA480078012802D85FEAC87155D15FEA88714CD4022807D180
:2050BC00A5480078012803D15FEA487000F188805FEA087057D400202DE1DFF860A29AF8F3
:2050DC00000018F04FF9002800F023810546807FC8B9688C132816D191486E8800F11C09E2
:2050FC00002049464F46002818BF071D086850B1014631F8042BB242F4D144683C6022F00A
:20511C00F6FD2046F3E7A87A05F1020B022840F0E680DFF80C9295F83170BBF8006009F1AB
:20513C001C000068A0B10188B14202D18178B94242D00430F5E77A480121017088F002004A
:20515C00E9E07748406900B1804788F00100E2E0D9F81C40002C57D001206168002955D097
:20517C0001300C46F9E77148DFF8B491807BD9F81C60000760D422F084FD044622F058FA17
:20519C006B4A60434FF47A71B0FBF1F0D9F818101288411A91427CD3B1FBF2FB0BFB02F23E
:2051BC00511A08445F49C9F818001FFA8BF00978884288BF8B4641E05A490978C170A5E0A9
:2051DC005F495E4800224FF6FE7300240978023079B130F8025C9D4208D04588013D45807F
:2051FC002D0406BF027020F8023C012401390630EEE734B1494804214FF4FA72007822F097
:20521C00E3FC88F0040086E000240020464980B20988884263D2082022F06BFD00285ED024
:20523C0000210680877041603E490978C170D9F81C1089B3606041E04FF0010B00205FFAFC
:20525C008BF44FF0000A071D002808BF09F11C07A6B1F078A04298BF2046A0EB0B00F070E6
:20527C0006D8756830463D6022F041FD2E46EFE7716830460AF1010A0E46E4E75FEA0A40A3
:20529C0007D100200821C9F818002448007818F03BF888F008003EE0C9F81C002348807BF8
:2052BC0000070BD422F0EDFC044622F0C1F960434FF47A71B0FBF1F0C9F818001B48807B47
:2052DC0000070CD59AF8000008211BF0C9FE30B91748082102889AF8000022F072FC287890
:2052FC00022810D0012811D1297EAA89EB7C05F11C006C696E7E8DE85A0005F110035946F2
:20531C0004F0ACFD02E0284615F010F8284620F0B3FE88F4004005B0BDE8F08F7101012020
:20533C005C0A0020A20E0020680E0020A8F500206C0E0020A80C0020C20E0020B4E700208F
:20535C007D0E00202DE9FE4F074608680024B0B1D7E9018A0E4622F0A2FC8146D8F8E80013
:20537C00082888BF0124B068204202D17068204208D003203074484622F099FC0024204690
:20539C00BDE8FE8FD8F8C01069B198F8F8100029EFD006213174D8F8C410C8F8C4604E6182
:2053BC0098F8FC100DE000210522C8E93066C8E93411C8E9361198F8FC10002908BF01221C
:2053DC00327400220129726109D102204FF4E02188F8FC0098F8FB001EF036F970688949BE
:2053FC000138884205D804201EF036FA06201EF033FA02201EF030FA98F8F80040B9DAF841
:20541C003C003168814203D298F8FC0000286CD0D8E9361009B118B900E028B322F067FB52
:20543C00DAF80000416941F001014161484622F03EFC98F8F80008B10124A0E708F16C05CE
:20545C00D8F8EC10284621F0B3FC0028F4D0D8F8C00003210174384609F06AF928460021B8
:20547C00002421F0A5FC8AE79AF8040022F019FC654CDAF810100222206991FAA1F1B1FAF4
:20549C0081F14368D8F8CC004068006898472069DAF8141002224368D8F8CC0091FAA1F141
:2054BC00B1FA81F14068006898479AF8040022F0F2FB9AF8040022F0F6FB22F018FB002051
:2054DC00C8F8E000D8F8C0000068B0F5806F01D922F00DFB98F8FE000028A1D1DAF8000096
:2054FC00416841F0020141609AE798F8F90020B1D8F8EC0001307FF48BAF484622F0D7FB2B
:20551C00B2683AB1D8F8E8000221092838BF0121009103E008F1F40200200090746834B171
:20553C00D8F8E8000227092838BF012702E008F1F6040027DAF80000334D416841F00201F3
:20555C004160D6F800B0D946BBF1000F40D0D8F8E800019209284FF0010011D22A68B9F14B
:20557C00000F1FD0C0071DD02178DAF800009268904700281EBF3C44A9F101090120EDE703
:20559C002A68B9F1000F16D0C00714D02188DAF800009268904700281EBF3C44A9F101099E
:2055BC000120EDE7DAF80000D26802A99047DDE90120107007E0DAF80000D26802A9904770
:2055DC00DDE9012010800098ABF1010B0244BBE7D8F8F000DAF80010CA680240102802D1EF
:2055FC00002AF9D101E0002AF6D0706820F0C0F8D8F8C0100020C8F8C400C8F8C0000874EA
:20561C001AE700BFFEFFFF0FC40100102DE9F04F87B000F102098246484622F0A8FA01AC8F
:20563C0006461821204621F009FD9AF8017004F10B00494622F019FB02209AF80A108DF841
:20565C001A006FF00100ADF8180000208DF80C0001F00800890708D480B901254FF0000B38
:20567C0000244FF00008012115E068B903214FF001084FF0000B002500240CE00221002538
:20569C004FF0010B002404E0042101244FF0000B00254FF000088448007838430DD0834834
:2056BC0090F8260008280BD1009121F073FD012F0AD148B14FF0C30B69E04FF0C30B01E0BA
:2056DC004FF0C20B002464E09EB332790098824218BF022F17D144EA0800012803D1D01ED1
:2056FC00C0B2022807D34BEA0501501E012917D1C1B2012914D830881FF02CFCD0B93088A4
:20571C00ADF8180018E04FF0000B49463B468DF81AB03088ADF8180022F0D5FA012437E07D
:20573C00C0B2012802D8308822F0EBFA484618F0F5F80026BDF818004FF6FE7188421CD148
:20575C001FF014FA10B1BDF818000FE027B1584C20881FF0FFFB30B19AF80A0000F00200F7
:20577C001CF070FE00E02088ADF818004FF6FE71884202D14FF0C70B09E09AF80A204946B8
:20579C003B4622F0A0FA002859D04FF0010B0024009977B1012F11D14A48007870B9002ECC
:2057BC0043D0002001228DF81A0001A813F0E2FA09E001A819F0C6FD76B91AE001A83A46A0
:2057DC0013F0D8FAAEB17179022F41F04002727104BF41F0600171719AF80A10490603D5FE
:2057FC00717941F080017171B17900250131B17100E00125B0FA80F149090C421CD107D1E6
:20581C00002C18BF834641F20100594614F0DDF815B9484618F082F8BDF818004FF6FE7195
:20583C00884218BF22F06DFA06E0022001228DF81A0001A813F09EFA07B0BDE8F08F1D48E4
:20585C00016811B1BDF818008847BDF81800009A494605F05FFB0646174818490A6800782A
:20587C004FF4803122F0B0F901211548C17036B1022F0DD00099012F0FD110200AE04FF6B0
:20589C00FE7000244FF0010B0026ADF818007FE7009908207279104370714FF0000B012477
:2058BC008DF81AB075E700BF7C0B0020A8F50020600E0020F0090020740101202097020008
:2058DC00600C0020A80C00202DE9F04F8DB0044600209A4616460F46CDE90B00CDE909003F
:2058FC008748856880460FF0E5FF262803D00FF0E1FF25281BD1308840F60201884218BF5C
:20591C00B0F5C15F03D1F07B022810D93EE043F6070188420BD196F82400032807D33069FF
:20593C00784940F0806020F0604088422ED100206FB366B3387825FA00F0C00726D03046B4
:20595C00002122F0D0F97048C4E90176006880B109A800900CA90BAA0AAB304609F022F9D0
:20597C000B980B214FF6FF72502320F02BF9FF280CD022F094F9654F06467878012802D84A
:20599C0040B1012070E0304622F091F900200DB0BDE8F08F09F060FE5D480DF10409016806
:2059BC0041F0020101605B48C8F80000484621F0E9FCDFF864B15A494A469BF801009BF809
:2059DC0000500390554828301AF0ACF9554856494A461AF0A7F9484621F0F4FBDFF84C817C
:2059FC00534A19214B46029540461BF0F5F8514A08F11C001A214B461BF0EEF84E484F4973
:205A1C0022F089F84E484F4922F085F84E48006810F4402F06D04D4A07F1280004210023D4
:205A3C001FF008FD9BF8020010B10D200FF08CF808F1400021F06FF808F1380021F06BF8DA
:205A5C004349002007223876B8843862386181F860200521C7E902103E49F96138700420AA
:205A7C00002120F07FF978782C4941F8204001307870304622F01BF9BAF1000F06D10DF11F
:205A9C00040A35492022504622F0C0F9DAE90012BAF81000DAE90635002AB2FA82F608BF11
:205ABC0040F6C4126261216060832563760926764FF4FA76C4E9036201226276274AC4E916
:205ADC000722C4E90923DAF80C0000B12062DAF8140000B16062DAF8080000B1E06104F17D
:205AFC003800C82121F0AAFA04F1500000211FF044FB1B4904F1B80022F00DF8204646E745
:205B1C00CC2108400F000005040D00209005002000200940110000E03C960200F8050020EF
:205B3C0079620200C8F90020713C0100B806002015C101008DA5010004F90020755402000D
:205B5C00C0F8002025620200B44F0050E5EA010020F6002091F900000094020027300100F7
:205B7C000F7C02002DE9FC470446019005789448465D9448E840ADF80260C00740F01E81AB
:205B9C000D2D13D1904E0DF10201B068D0F8282453209047BDF802104FF6FD70814214D84E
:205BBC00208990B14FF0000AA146AEE00C2D0ED0072D13D0052D0ED1A078012800F0FE8033
:205BDC00207C304400F1240716E0B068CDE06068C08AC0050AD44FF0000A09E0A07848B1CA
:205BFC00A07D00EBC00006EB800705E04FF0010A374605E006F11B07ADF802704FF0000A3F
:205C1C0038461FF0BDFB38B38146072D44D1207889F80000607889F80100A07889F802001A
:205C3C000028E17889F80310D4F80510C9F804105AD0A07D002889F8080049D0A169002939
:205C5C0046D000EBC00009F110068200304621F039FBC9F80C6040E00C2D40F0AF80A1464E
:205C7C0059F8040F002800F0A98022F018F8804655488068D0F854134846884738461FF0DD
:205C9C007FFB8146404622F012F8B9F1000F00F0958021F077FE38E021F074FE052D34D1EF
:205CBC0009F11806D9F804102422304621F00AFBD9F8141099F8102009F13C00C9F80460E8
:205CDC0021F000FBD9F804002430C9F814001CE0002089F80800C9F80C00A069A8B122F0B8
:205CFC0006F80020A0750FE01B2009F110061B2289F808003046A16921F0E4FAC9F80C60B9
:205D1C00A06921F0F4FF0020A0613048016819B148468847002846D10D2D2BD1606801787B
:205D3C008A0720D42A4AC1F38301927C91421AD140783F2817D894F83000022813D199F8E1
:205D5C00470009F146011CF079FC01984FF6FF72418E91421FD14068807902281BD34846F6
:205D7C0018F0F2FC50B318488068D0F8541301A8884723E00C2D0ED160781A280BD0D9F83E
:205D9C00040040B1C08AC00705D099F8100009F10F011CF053FCBAF1000F04D10D48494693
:205DBC00007817F097FE0C2D08D1019850F8041F21B105498968D1F85413D9E7BDE8FC8774
:205DDC006095020019C206000C0100203C0E0020A8F50020740101202DE9F04F8DB0064607
:205DFC00806A447874B18D4909788C4280F012818B49023022462AB130F8023B013A21F892
:205E1C00023BF8E78748C18A708988422FD183480078A04240F2FE80B589814A21462846BA
:205E3C0020F070FA284615F09FFD064682480778BE4204D14FF6FE7015F096FD0646BE42BC
:205E5C0080F0E880DFF8F48108EBC6094F4657F8040F08B121F04BFF002C00F0B180600088
:205E7C0021F047FF0028386040F0AC80D2E0B27C002A00F0CF806A4F0025AC4205D037F87A
:205E9C0015208A4203D00135F7E7A04600E0A846002113F06FF8002800F0AD8081464079FA
:205EBC00012840F0A88099F8060010F0180F00F0A280B9F80210204620F012FBA54202D373
:205EDC00002800F098805848CDE90498B6F80C904FF6FE7A00780890544800780A9000209F
:205EFC0006960B9052481130099052480430079000200C90DDE909564FF0000BF6B135F877
:205F1C00117C574518BF4F4502D1013E1C35F5E72046394620F0E4FA0028F6D128780138F7
:205F3C000528F2D80C980BF1010BC007EDD00B985FFA8BF1C0B28142E7D356E0DDE907862E
:205F5C002EB338F8047C574518BF4F4503D1013E08F12408F4E72046394620F0C1FA0028A2
:205F7C00F5D198F8050001380528F0D898F8000001380228EBD30C980BF1010BC007E6D0A2
:205F9C000B985FFA8BF1C0B28142E0D32DE00B98000628D15FEA0B6025D001205FFA8BF533
:205FBC000B90012D4FF001000C90A3D021F03AFDC0B2B0FBF5F101FB15000B90012098E716
:205FDC00002038601E4989F80140A9F80250097808F83610F4B1E8B1114962000DB0BDE8AE
:205FFC00F04F21F06FB94FF6FE770498069EDDF8148047800A4FB37CF47CB269B189012570
:20601C00581EB07470895FFA88F68DE8D00003950FF048FD0DB0BDE8F08F00BF4797020059
:20603C00D8FE0020A8F50020529702004197020024C10020F0A60020289702005097002049
:20605C00BB0E00202DE9F04F87B005462C200E4621F04FFE002844D0778B044621F024FBAE
:20607C000021E1840121874208BF02212170707BA0703169081A6060204617F0A1F93178F1
:20609C00814F01F00301387B012908BF05206070C0B221F067F94FF0FF316077A182217F9A
:2060BC00326908440A44317D3261081A3075E070A069013017D0207C032816D8DFE800F0AA
:2060DC0002170209062021466082284615F0B6FE10B3042021466082284606F07FFF05468D
:2060FC001BE01025CBE0A32517E0A12515E00020B3256082F87A80B997F8410001280CD1D4
:20611C00A07D4FF6FF7618F007FD0025A082B04208BF6FF05E0500E000252078022807D11F
:20613C0004F1080620F0FEFD0146304621F09DFD280640F0A180554F3878013801281AD8A6
:20615C0094F8260010B994F82700A0B1A078E178227F08441044043021F0CBFD58B1A178C3
:20617C00E2780646207F114408446168021D304621F0A8F800E0002620460DF0E9FB054676
:20619C0038780138012873D8002E71D0002D6FD00DF1080800274FF0010B4FF4D00908F116
:2061BC00080A94F8260018B994F8270000285FD0A178E278207F114408443146021D606813
:2061DC0021F080F894F8260020B184F82670C4F8129007E094F8270020B12D4884F8277034
:2061FC00C4F8120020460DF0B3FB10B10021054639E04046142120F021FF608A8DF819B03B
:20621C00F0B9A08A40F20311884216D0682817D16068C17B052929D12A30FF21082220F041
:20623C009BFC18B34FF0FF306946CDE900001948006821F01AFDFC2000E0FF208DF8180064
:20625C00504669460022002512F0B8F901469DF8000038B10420142243461EF0F5FA03211A
:20627C00002500E0032103299BD101E00221FAE716B1304621F03BFD204621F038FDE8B290
:20629C0007B0BDE8F08F00BFA8F50020A80C002000000301C40001202DE9F04F93B00446EC
:2062BC001DF074F808B11120D6E0207F4FF6FE75C0B187480078810041EA4010618820771E
:2062DC00FF201EF0BBFD002190B1E08A05F101094FF0010B40F00400E082207F40F0010040
:2062FC00207709E04FF0000B00254FF6FE7909E04FF0000B4FF6FE7976480078022838BF91
:20631C0001218D01678838461AF02AFE08B10020607694F81AA0BAF1000F04D16E4890F850
:20633C0000A084F81AA094F90000C6B2B0F1FF3F07DDE07E40B969480178E1760131017028
:20635C0002E006F00306267064490495C87A304304D1207E012804BF00202076DFF87481CE
:20637C0098F80000012833D8887B800730D5BBF1000F1CD0E08A410606D5BAF1010F03D1EC
:20639C0020F00400E08222E0A188E07E627DADF822708DF82AA0ADF824108DF82B0006A846
:2063BC0003F092FC00283FF47EAF26780FE038461AF0D6FD58B1002EDCD0206900780A28BA
:2063DC0005D8012101FA00F010F4836FD2D143494FF6FE75012E07D120690078022803D1D4
:2063FC00E08A40F04000E08298F80000012806D8BBF1000F04BFE08A10F040002FD08846B9
:20641C000DF11701204605F0FDF806461FFA89F0A84208BFB4F80290EEB12078617D94F88C
:20643C002C70B8F816209DF8173007948DF81800608DADF81A00E08A06ACCDE90274CDE900
:20645C0000101FFA89F130460BF0CCF9102803D1304621F04CFC102013B0BDE8F08F887B52
:20647C0088468007CCD5049EA71D6188607E3A46334612F071FA28B100206076E08A40F00E
:20649C002000E082387870B1618804F108001BF039FA81466088814504BF00203870E08AFF
:2064BC0040F04000E0822078012804D0A188608832460EF003FEA188608832460CF0AAFBA7
:2064DC0000289DD0E08A40F02000E08298E700BFA00E0020A80C00203B970200A8F500207E
:2064FC002DE9F04F99B012AF884604461C219146384620F0A3FD204639460BF033FB9DF824
:20651C00550010B99DF85C0038B19DF8480041060AD560891AF024FD20B140F235100EF00A
:20653C00D0FFEDE09DF84800C0F3401A00F00C0610F0200F18BF042E21D1E08D9DF8483013
:20655C0010F080010CD15A060AD59DF84920920706D143F0040202F00C020C2A40F0D38022
:20657C000025012213F0030320D0012B4DD0022B40F0C680A08912A91AF0B8F9C0E0A58965
:20659C0021F092F8854202D1E08D010609D4A58921F08AF8854200F09280E08D010600F16A
:2065BC008E80000600F18080A08981E0DFF85CB19BF80B30012B02D1A379002B7CD00223C7
:2065DC00A7898DF84430ADF83C7099BB042E79D1207C514E8DF85E003068002800F0908077
:2065FC0021F062F8874240F08B80E08D217994F8302036682B460492CDE9001ACDE9029070
:20661C000FA812A94246B0477AE0002918BF012152EA010003D1A08912A913F01FFDA089B4
:20663C000797ADF81800A0798DF81A0006A818F05BF965E0ADF8300016989DF84A109DF8D5
:20665C004B208DF8203094F832300B9060898DF82310DDF84E108DF8222094F830208DF859
:20667C003830ADF81800BBF82400CDF826109DF85C108DF83720ADF82400207CADF82A10E6
:20669C00A17C8DF8320020798DF834109DF85F108DF833009DF85D008DF836108DF8350075
:2066BC0006A802F0EDF82BE0A089ADF86200608912A91CF039FF10B14FF49A702FE74FF0B3
:2066DC00010A3AE71AB912A9384613F0C7FC11480078022807D10E480078012803D120469C
:2066FC0010F014FD60B1A07CE17CBBF824204346CDE9001ACDE9029012A80FA90EF0C4F81F
:20671C0019B0BDE8F08F012500222BE7A8F50020C20E0020A80C00206C0A00202DE9F04FAA
:20673C0097B0044680690DF15B0200214FF0000890F800B09C200AF039FD7B480078012878
:20675C0008D8002004211BF049FD80469DF85B00404400E00120C1B200258DF85B00594556
:20677C007DD9A0EB0B060221F0B2022828BF0E461A207043C0B221F0BCFA0027002800F07C
:20679C00BF8009940BA907965FFA86FACDF814805FFA88F60446D8464FF000090690CDF89C
:2067BC0020B004310A915FFA89F050455DD25FFA88F0B04256D21EF0EDF900284AD05B49C2
:2067DC000546888C39312080A01C21F04EFA4FF60270A4F8170028888DF82C706082ADF85D
:2067FC002E00A97A61760BA811F064FA014604F10A00012903D10A9921F037FA03E04FF0F8
:20681C00FF3141600160287948B1484991F8381001310228217612D80221012811E0434889
:20683C00022190F838006175298800290A4618BF0122227518BF411E2176002008E00121D1
:20685C000328217502D16775012001E001206075A0751A3408F1010809F10109A3E700269B
:20687C0000274DE00598CBFA50F830480FAD4FF0020BAE1C00F139075FFA89F050453AD210
:20689C005FFA88F187202A460AF090FCBDF8460039462080A01C21F0E8F904F10A0031462F
:2068BC0021F0E3F9BDF83C001F49204B012209F1010908F1010860820978022938BF022239
:2068DC0093F838306275A3F1010238BF4FF0FF3202294FF00001227638BF012184F817B075
:2068FC004900A175002818BF01209DF84E10207561761A34C0E7069FDDE908B4079E0025B8
:20691C00607CF1B29DF85B300022CDE90275CDE900B1A11C09F0A2FF17B1384621F0E7F978
